S02B00006163686F693033355F6E6A696D653030365F4C6162375F50617274315F53657276616E74322E7372DD
S113000045C0000053C0000051C000004FC00000B4
S11300104DC000004BC0000049C0000047C00000B4
S113002045C0000043C0000041C000003FC00000C4
S11300303DC000003BC0000039C0000037C00000D4
S113004035C0000033C0000031C0000093C0000080
S11300502DC000002BC0000029C0000027C00000F4
S113006025C0000023C0000021C000001FC0000004
S11300701DC000001BC0000019C0000017C0000014
S113008015C0000013C0000011C0000011241FBEE1
S1130090CFEFD0E4DEBFCDBF21E0A0E0B1E001C0EE
S11300A01D92AF31B207E1F774D0F4C0A9CF18168E
S11300B019065CF00895000021503109E1F74F5F03
S11300C05F4F8417950719F4089540E050E027E046
S11300D033E0F1CF28988BB9299A0000299882E05F
S11300E090E0E5CF089581E0F5CF089584E690E0AF
S11300F0DEDF88E3EFDF86E0EDDF8FE0EBDF81E03A
S1130100E9DF8AE090E0D3CF0895289A8BB9299A41
S11301100000299881E090E0CACF0895813118F455
S11301208158D8CF08958155D5CF08950F931F9343
S1130130CF93DF93182FEB01D6DF8881882351F00A
S113014001E0010F812FEADF8991DFDF102F888121
S11301508111F6CFDF91CF911F910F910895269AC7
S113016084B18F7484B98CB5806C8CBD8FB7806872
S11301708FBF08951F920F920FB60F9211248F9381
S11301808EB5809300018F910F900FBE0F901F903A
S113019018958FE084B980EF85B98FEF8AB91BB8C1
S11301A0DEDFA4DF81E0BADFC1E0D1E00F2EFDEC99
S11301B0DF2EF02D0F2EF9E2CF2EF02D0F2EF8EEBC
S11301C0EF2EF3E0FF2EF02D0AE010E08091000105
S11301D08D9D912D1124969596959695392F330FD3
S11301E0232F220F220F230F382F321B232F205DA2
S11301F02B839D9D212D1124269526952695220F2E
S1130200322F330F330F230F921B905D9A838C9DF3
S1130210912D112492959F70905D998390E0B70180
S113022012D0CB01B8010FD0805D8883BE0181E07C
S11302307DDF8FEF90E722E0815090402040E1F78E
S113024000C00000C3CF97FB072E16F4009406D01D
S113025077FD08D00BD007FC05D03EF4909581952E
S11302609F4F0895709561957F4F0895AA1BBB1BFE
S113027051E107C0AA1FBB1FA617B70710F0A61BA2
S1130280B70B881F991F5A95A9F780959095BC01C3
S10B0290CD010895F894FFCF9D
S9030000FC
