S02B00006163686F693033355F6E6A696D653030365F4C6162335F50617274315F6D61737465722E73726563A2
S113000045C000004BC0000049C0000047C00000CC
S113001045C0000043C0000041C000003FC00000D4
S11300203DC000003BC0000039C0000037C00000E4
S113003035C0000033C0000031C000002FC00000F4
S11300402DC000002BC0000029C0000027C0000004
S113005025C0000023C0000021C000001FC0000014
S11300601DC000001BC0000019C0000017C0000024
S113007015C0000013C0000011C000000FC0000034
S11300800DC000000BC0000009C0000011241FBEF9
S1130090CFEFD0E4DEBFCDBF52D06FC0B1CF1816C2
S11300A019065CF00895000021503109E1F74F5F13
S11300B05F4F8417950719F4089540E050E027E056
S11300C033E0F1CF46988BB9479A0000479882E015
S11300D090E0E5CF089581E0F5CF089584E690E0BF
S11300E0DEDF88E3EFDF86E0EDDF8FE0EBDF81E04A
S11300F0E9DF8AE090E0D3CF0895469A8BB9479A16
S11301000000479881E090E0CACF0895813118F447
S11301108158D8CF08958155D5CF08958FEB84B9F0
S113012080E485B98CB581658CBD80E88FBF089566
S11301302C988EBD0DB407FEFDCF2C9A08958FE048
S113014081B980EF82B98FEF87B918B88AB91BB823
S1130150E5DFC4DFC0DF84E0D9DF81E6CEDFC1E0C4
S11301608C2FE6DF2FEF89E698E121508040904004
S1110170E1F700C00000CF5FF3CFF894FFCF9B
S9030000FC
