S02400006163686F693033355F6E6A696D653030365F4C6162355F50617274322E7372656391
S113000065C0000080C000007EC000007CC000000D
S11300107AC0000078C0000076C0000074C0000000
S113002072C0000070C000006EC000006CC0000010
S11300306AC00000FCC3000066C0000064C0000089
S113004062C0000060C000005EC000005CC0000030
S11300505AC0000058C0000056C0000054C0000040
S113006052C0000050C000004EC000004CC0000050
S11300704AC0000048C0000046C0000044C0000060
S113008042C0000040C000003EC00000AE01B1010B
S1130090B401B701BA01BD01C001C301C601D60153
S11300A0DA01DE01E201E601EA01EE01F201F60104
S11300B03F024202450248024B024E0251026102D3
S11300C0650269026D0271027502790211241FBE74
S11300D0CFEFD0E4DEBFCDBF11E0A0E0B1E0E2E1BC
S11300E0FFE000E00BBF02C007900D92A032B10701
S11300F0D9F727E0A0E2B1E001C01D92A036B20713
S1130100E1F72FD204C77CCFCF93DF93EC014AD51C
S11301108091200190912101892B31F485E291E0B5
S11301209093210180932001209122013091230199
S1130130C9018C0F9D1F8B3D45E0940770F428176F
S1130140390770F4C0912001D0912101C20FD31F4F
S1130150909323018093220105C0C0E0D0E002C047
S1130160C0E0D0E0DCD5CE01DF91CF9108950895B1
S1130170FC010396928381832FEF3FEF3483238323
S1130180968385839087878310820895FC01118666
S113019010860895CF93DF939C01FB01DC01119637
S11301A0CD91DC911297D383C2838C819D819583F9
S11301B084838C819D81DC0113967C936E931297CA
S11301C07D836C8331872087F90180818F5F8083F1
S11301D0DF91CF910895CF93DF93EB01488159814B
S11301E04F3F2FEF520721F4FC01A781B0850DC0CA
S11301F0DC01139601C0DF011296ED91FC91139777
S11302002081318142175307B0F71296ED91FC918A
S11302101397FB83EA83D583C483BD83AC8313968E
S1130220DC93CE93129799878887FC0120812F5FF6
S11302302083DF91CF910895CF93DF93FC01A085B4
S1130240B185C281D381848195819D838C83C4814E
S1130250D581828193819B838A8311968D919C9110
S11302601297E817F90731F48481958112969C93CB
S11302708E931197118610868C9181508C938C915A
S1130280DF91CF91089527E030E058E0E82FF0E0C7
S11302905BB94BB1BF01022E02C0759567950A94F4
S11302A0E2F7962F9170942B9BB95A9A21503109F9
S11302B078F7599A1BB8089510925D0710925E075B
S11302C010925F07089580B190E0809590958370B7
S11302D09927039779F480910001882319F08130DC
S11302E029F008C081E08093000104C0109200014D
S11302F080E0C9DF00990BC0809101018330A9F02F
S113030090910001913019F48F5F8093010101995C
S11303100EC080910101813051F090910001913023
S113032031F48150809301010895019BF6CF089523
S1130330CADF84E690E06CD5FBCF813009F05EC063
S1130340613009F0DDC0E0915D078E2F90E08930C7
S11303509105F8F4FC01EA5BFF4FD0C580E093DF20
S11303601AC081E090DF17C082E08DDF14C084E002
S11303708ADF11C088E087DF0EC080E184DF0BC014
S113038080E281DF08C080E47EDF05C080E87BDF97
S113039002C080E078DFE0915D078E2F90E0893025
S11303A0910540F5FC01E15BFF4FA8C581E0809316
S11303B05D07089582E080935D07089583E080934C
S11303C05D07089584E080935D07089585E0809338
S11303D05D07089586E080935D07089587E0809324
S11303E05D07089588E080935D07089581E0809318
S11303F05D07089581E080935D070895823071F56B
S1130400613009F07DC080915E07813039F018F0C9
S1130410823039F009C08FE036DF08C08FE033DF67
S113042005C080EF30DF02C08FE02DDF80915E07D2
S1130430813041F018F0823049F00CC081E08093A3
S11304405E07089582E080935E07089581E08093BB
S11304505E07089581E080935E070895833009F074
S11304604FC0613009F04CC0E0915F078E2F90E0DF
S113047087309105C8F4FC01E85AFF4F3FC585E079
S113048002DF14C085E0FFDE11C08AE0FCDE0EC08E
S113049084E1F9DE0BC088E2F6DE08C080E5F3DE15
S11304A005C080EAF0DE02C085E0EDDEE0915F0782
S11304B08E2F90E08730910500F5FC01E15AFF4F43
S11304C01DC581E080935F07089582E080935F07F4
S11304D0089583E080935F07089584E080935F0725
S11304E0089585E080935F07089586E080935F0711
S11304F0089581E080935F07089581E080935F070A
S11305000895DADE609100018091010116DF88EC24
S113051090E07ED4F7CFEF92FF920F93E12CF12C71
S1130520082F20E030E045E550E062E071E081E82A
S113053092E013D20F91FF90EF900895EF92FF9203
S11305400F93E12CF12C082F20E030E045E550E03A
S11305506DE071E088E991E000D20F91FF90EF9097
S113056008958FEF8AB91BB811B882B9A5DE81E06E
S1130570D2DF82E0E3DFEED280E090E0089531E163
S1130580FC013083319722E220833197A3E3A083D7
S1130590319760833197708331971082319760E887
S11305A0608331971082319762E06083319763E012
S11305B06083319764E06083319765E060833197AD
S11305C066E06083319767E06083319768E0608319
S11305D0319769E06083319760E1608331973083BC
S11305E0319732E13083319733E13083319734E10D
S11305F03083319735E13083319736E13083319759
S113060037E13083319738E13083319739E13083F2
S1130610319730E23083319731E230833197208350
S1130620319723E220833197408331975083319768
S113063026E22083319727E22083319728E2208322
S1130640319729E22083319720E32083319721E3F6
S1130650208386970895109289008CE78093880000
S11306608BE080938100EFE6F0E0808182608083FC
S1130670A0915B07B0915C07CD91CDBFDD91DEBF4A
S1130680FF91EF91DF91CF91BF91AF919F918F91A6
S11306907F916F915F914F913F912F911F910F9196
S11306A0FF90EF90DF90CF90BF90AF909F908F908E
S11306B07F906F905F904F903F902F901F900F907E
S11306C00FBE0F90089581E008950F920FB6F8942D
S11306D00F921F9211242F923F924F925F926F922A
S11306E07F928F929F92AF92BF92CF92DF92EF92BE
S11306F0FF920F931F932F933F934F935F936F93A7
S11307007F938F939F93AF93BF93CF93DF93EF9395
S1130710FF93A0915B07B0915C070DB60D920EB6E6
S11307200D9286D3A0915B07B0915C07CD91CDBFAC
S1130730DD91DEBFFF91EF91DF91CF91BF91AF913A
S11307409F918F917F916F915F914F913F912F91E5
S11307501F910F91FF90EF90DF90CF90BF90AF90DB
S11307609F908F907F906F905F904F903F902F90CD
S11307701F900F900FBE0F9008950F920FB6F8942C
S11307800F921F9211242F923F924F925F926F9279
S11307907F928F929F92AF92BF92CF92DF92EF920D
S11307A0FF920F931F932F933F934F935F936F93F6
S11307B07F938F939F93AF93BF93CF93DF93EF93E5
S11307C0FF93A0915B07B0915C070DB60D920EB636
S11307D00D92EED181112CD3A0915B07B0915C07EF
S11307E0CD91CDBFDD91DEBFFF91EF91DF91CF9130
S11307F0BF91AF919F918F917F916F915F914F9135
S11308003F912F911F910F91FF90EF90DF90CF9028
S1130810BF90AF909F908F907F906F905F904F901C
S11308203F902F901F900F900FBE0F900895A5DF5B
S11308301895E0912307F09124078081811107C066
S11308408FEF9FEF90930407809303070895E0913F
S11308502307F09124070580F681E02D0680F781B7
S1130860E02D828193819093040780930307089578
S11308700FE017E00F2EF7E3EF2EF7E0FF2EF02D39
S113088080910E07882311F10FB6F8940F92D801C6
S11308901596ED91FC911697C681D781CE010296EB
S11308A0CBDC80910D07815080930D0780910E075A
S11308B0815080930E070F900FBE8F89988D57DC5F
S11308C0CE0155DC80910E078111DECFF7018081C6
S11308D08230B0F2FADED4CF0F931F93CF93DF931D
S11308E0EC0100910B0710910C0780915B0790912C
S11308F05C070296A1DCC00FD11FE0915B07F09169
S11309005C07D383C283C017D10760F460915B078F
S113091070915C0780912107909122076E5F7F4F51
S11309205ADC16C060915B0770915C0780912307C5
S1130930909124076E5F7F4F4EDC80910307909166
S11309400407C817D90720F4D0930407C0930307FA
S1130950DF91CF911F910F9108954F925F926F9203
S11309607F928F929F92AF92BF92CF92DF92EF923B
S1130970FF920F93CF93DF934C016B015A0129012E
S1130980CA01C2DB3C01892B09F4D3C086E290E0A2
S1130990BBDBEC01892B59F0788E6F8A81E0A81AB1
S11309A0B108A60CB71CC114D10421F41FC0C301A3
S11309B0DEDBBFC0D6018C91898F8C918823A1F096
S11309C0AE01465E5F4FF6013196B8E0CB0ED11C06
S11309D0CF012191DA012D93AD01DC018C918823A3
S11309E019F0EC15FD05A1F718A201C0198E043009
S11309F008F003E00E8B6E01B2E0CB0ED11CC601F1
S1130A00C5DBCE010C96C2DBD987C88784E090E0B1
S1130A10801B91099D878C87DB8BCA8B19A21AA234
S1130A201BA21CA21DA2A201B401C501A8DD9983C9
S1130A308883E114F10419F0F701D183C0830FB660
S1130A40F8940F9280910D078F5F80930D0780912A
S1130A505B0790915C07892B69F5D0935C07C09381
S1130A605B0780910D078130A9F587E397E080DB70
S1130A7080E497E07DDB89E497E07ADB82E597E028
S1130A8077DB8EE297E074DB85E297E071DB88E147
S1130A9097E06EDB8FE097E06BDB8EE297E090935C
S1130AA024078093230785E297E09093220780939D
S1130AB0210710C08091090781110CC0E0915B07E8
S1130AC0F0915C0796898E89891720F0D0935C0792
S1130AD0C0935B07809105078F5F809305078E891C
S1130AE090910A07981710F480930A0790E09C01EC
S1130AF0220F331F220F331F220F331F820F931F26
S1130B00B601895C984F46DB0F900FBE80910907B0
S1130B10882359F0E0915B07F0915C0796898E89F0
S1130B20981728F4D2DD81E005C081E003C081E09C
S1130B3001C08FEFDF91CF910F91FF90EF90DF9085
S1130B40CF90BF90AF909F908F907F906F905F9069
S1130B504F900895EF92FF920F930F2EF1E0EF2E36
S1130B60F7E0FF2EF02D00E020E030E045E550E016
S1130B706BE171E088E394E0F0DE813079F4F8947D
S1130B808FEF9FEF909304078093030781E0809396
S1130B90090710920C0710920B075DDD0F91FF906F
S1130BA0EF900895809100078F5F80930007089568
S1130BB0CF92DF92EF92FF920F931F93CF93DF9325
S1130BC080910007811195C0E0900B07F0900C070D
S1130BD08FEFE81AF80AF0920C07E0920B07E11481
S1130BE0F104B1F480912307909124072091210707
S1130BF030912207309324072093230790932207F0
S1130C0080932107809106078F5F8093060711DE8A
S1130C108091030790910407E816F90610F4D12C8B
S1130C2050C0D12CCC24C394E0912307F091240725
S1130C308081811107C08FEF9FEF90930407809309
S1130C4003073FC0E0912307F09124070580F68154
S1130C50E02DC681D7818A819B81E816F90628F4A4
S1130C6090930407809303072CC08E010E5F1F4FDF
S1130C70C801E2DA8C899D89892B19F0CE010C9682
S1130C80DBDA8E8990910A07981710F480930A078B
S1130C9090E09C01220F331F220F331F220F331FBA
S1130CA0820F931FB801895C984F74DAE0915B0757
S1130CB0F0915C079E898689981708F4B5CFDC2CDF
S1130CC0B3CFE0915B07F0915C07868990E0FC016B
S1130CD0EE0FFF1FEE0FFF1FEE0FFF1F8E0F9F1F64
S1130CE0FC01E95CF84F8081823048F0DD24D39424
S1130CF006C0809108078F5F80930807D12C8091EC
S1130D000707882311F0DD24D3948D2DDF91CF9133
S1130D101F910F91FF90EF90DF90CF900895DF9295
S1130D20EF92FF920F931F93CF93DF930FB6F89434
S1130D300F928091000781508093000780910007F3
S1130D40811159C080910D07811130C057C0D7015E
S1130D501596ED91FC911697C681D781CE010C961C
S1130D606BDA8E010E5F1F4FC80166DA8E8990918F
S1130D700A07981710F480930A0790E09C01220F49
S1130D80331F220F331F220F331F820F931FB8010B
S1130D90895C984FFFD9E0915B07F0915C079E89CD
S1130DA08689981768F0D09207070AC0C0E0D0E09F
S1130DB00F2EF8E1EF2EF7E0FF2EF02DDD24D39473
S1130DC0F70180818111C3CFCD2B09F032DDC091B1
S1130DD00807CC2349F0D1E0EBDE8111D09307075B
S1130DE0C150D1F71092080780910707882329F092
S1130DF06CDC81E003C080E001C080E00F900FBE96
S1130E00DF91CF911F910F91FF90EF90DF900895A4
S1130E10CF93DF93EC01892B39F0C4DE60E0CE017F
S1130E205BDD7DDF811101C050DCDF91CF9108953E
S1130E3080910007882321F081E0809307070895BB
S1130E401092070720910A07822F90E0FC01EE0F11
S1130E50FF1FEE0FFF1FEE0FFF1FE80FF91FE95CE6
S1130E60F84F3081311111C02150822F90E0FC01E4
S1130E70EE0FFF1FEE0FFF1FEE0FFF1FE80FF91F0E
S1130E80E95CF84F3081332379F3AC01440F551FEB
S1130E90440F551F440F551F480F591FDA01A95C11
S1130EA0B84F1196ED91FC9112970280F381E02DD9
S1130EB01296FC93EE931197465C584FE417F5078E
S1130EC029F442815381FD0152834183FC01EE0FD9
S1130ED0FF1FEE0FFF1FEE0FFF1F8E0F9F1FFC0162
S1130EE0E95CF84F0180F281E02D8681978190932F
S1130EF05C0780935B0720930A070895EE0FFF1F9A
S1130F000024001C0BBE0790F691E02D0994F89480
S1050F10FFCF0D
S1130F1201014C65645365635461736B00627574BB
S1130F22746F6E5365635461736B0049444C45009E
S9030000FC
