:1000000045C0000053C0000051C000004FC00000B8
:100010004DC000004BC0000049C0000047C00000B8
:1000200045C0000043C0000041C000003FC00000C8
:100030003DC000003BC0000039C0000037C00000D8
:1000400035C0000033C0000031C000002FC00000E8
:100050002DC000002BC0000029C0000027C00000F8
:1000600025C0000023C0000021C000001FC0000008
:100070001DC000001BC0000019C0000017C0000018
:1000800015C0000013C0000011C0000011241FBEE5
:10009000CFEFD0E4DEBFCDBF21E0A0E0B1E001C0F2
:1000A0001D92A230B207E1F76CD079C0A9CF8130A0
:1000B00081F0E1ECF0E0808188618083E2ECF0E0A7
:1000C00080818660808383E38093C4001092C500A2
:1000D0000895E9ECF0E0808188618083EAECF0E04B
:1000E00080818660808383E38093CC001092CD0072
:1000F0000895813029F48091C800882374F0089510
:100100008091C00088238CF4A6ECB0E0E0ECF0E035
:100110008C9180818823E4F30895AEECB0E0E8ECA4
:10012000F0E08C9180818823E4F30895813041F0E0
:10013000E0ECF0E080818823ECF78091C600089520
:10014000E8ECF0E080818823ECF78091CE00089500
:1001500080910101882369F0813079F48091C00099
:10016000882374F41092010180E0E0DF80930001A5
:10017000089581E080930101089581E08093010159
:1001800008958FEF81B910B81AB889B980E08FDF70
:1001900080E0AFDFDDDF8091000182B9FBCFF89412
:0201A000FFCF8F
:00000001FF
