S02400006163686F693033355F6E6A696D653030365F4C6162325F50617274322E7372656394
S113000045C0000060C000005EC000005CC000008D
S11300105AC0000058C0000056C0000054C0000080
S113002052C0000050C000004EC000004CC0000090
S11300304AC00000B2C1000046C0000044C0000035
S113004042C0000040C000003EC000003CC00000B0
S11300503AC0000038C0000036C0000034C00000C0
S113006032C0000030C000002EC000002CC00000D0
S11300702AC0000028C0000026C0000024C00000E0
S113008022C0000020C000001EC0000011241FBEBA
S1130090CFEFD0E4DEBFCDBF11E0A0E0B1E0E2E0FD
S11300A0F8E000E00BBF02C007900D92A234B10744
S11300B0D9F721E0A2E4B1E001C01D92A335B20753
S11300C0E1F7EED19CC39CCF8091470182B9809126
S11300D0460188B980E090E008958130910551F09F
S11300E08230910571F080914501811114C082E044
S11300F090E0089580914501811107C082E090E06D
S1130100089520914501222351F081E08093470115
S113011080E090E008951092470181E090E0089516
S1130120009749F420914501211123C020E030E0DB
S113013081E090E017C021E080914501811120E029
S1130140822F90E02223A9F02130E9F42091430189
S113015030914401283B4BE0340720F021E0209308
S1130160450111C02B5F3F4F30934401209343015D
S11301700AC02091C00022231CF41092450103C040
S113018021E02093450120914501209346010895E3
S1130190813081F0E1ECF0E0808188618083E2ECE1
S11301A0F0E080818660808383E38093C4001092B2
S11301B0C5000895E9ECF0E0808188618083EAEC71
S11301C0F0E080818660808383E38093CC0010928A
S11301D0CD000895613041F0E0ECF0E0908195FFAE
S11301E0FDCF8093C6000895E8ECF0E0908195FF80
S11301F0FDCF8093CE000895CF93DF93019751F004
S113020091E080E020914501211101C090E0C92FC7
S1130210D82F09C091E080E020914501211101C04F
S113022090E0C92FD82FC130D10541F48091C80086
S113023085FF04C061E080914701CCDFCE01DF91EE
S1130240CF910895813041F0E0ECF0E08081882383
S1130250ECF78091C6000895E8ECF0E080818823F3
S1130260ECF78091CE000895CF93DF93019749F086
S113027091E080E020914501211190E0C92FD82F11
S113028008C091E080E020914501211190E0C92F40
S1130290D82FC130D105A1F48091C000882344F443
S11302A080E0D0DF80934701109244011092430113
S11302B08091C80085FF04C061E0809147018ADF16
S11302C0CE01DF91CF910895CF92DF92EF92FF920A
S11302D01F93CF93DF9310924201809148018823AA
S11302E009F453C080E01BE0C0914D01D0914E0150
S11302F0189FC00DD11D11244D815E816F817885B9
S113030089819A81AB81BC81481759076A077B07A9
S1130310B0F08881E985FA85082E000C990B0995BF
S1130320888380914201E0914D01F0914E01189F24
S1130330E00DF11D1124158216821782108680911A
S11303404201E0914D01F0914E01189FE00DF11D25
S11303501124C580D680E780F08440910601509135
S1130360070160910801709109014C0D5D1D6E1D1E
S11303707F1D45835683678370878F5F8093420117
S113038090914801891708F4AFCFDF91CF911F9165
S1130390FF90EF90DF90CF9008951F920F920FB6C9
S11303A00F9211240BB60F922F933F934F935F93A9
S11303B06F937F938F939F93AF93BF93EF93FF9329
S11303C08091490190914A01A0914B01B0914C0157
S11303D00197A109B1098093490190934A01A0931F
S11303E04B01B0934C01892B8A2B8B2B89F46CDF46
S11303F08091060190910701A0910801B091090133
S11304008093490190934A01A0934B01B0934C010E
S1130410FF91EF91BF91AF919F918F917F916F91D8
S11304205F914F913F912F910F900BBE0F900FBE94
S11304300F901F90189560930601709307018093A5
S11304400801909309016093490170934A018093D4
S11304504B0190934C0108958BE0809381008DE7CC
S113046090E0909389008093880082E080936F00ED
S113047010928500109284008091060190910701EA
S1130480A0910801B09109018093490190934A0118
S1130490A0934B01B0934C018FB780688FBF089530
S11304A0CF93DF93CDB7DEB7E7970FB6F894DEBFEF
S11304B00FBECDBF8FEF81B910B887B916B814B885
S11304C083B915E01AB98AEF89B981E061DE80E069
S11304D05FDE8BE0EAE0F1E0DE01119601900D921F
S11304E08A95E1F78BE0E5E1F1E0DE011C960190ED
S11304F00D928A95E1F78BE0E0E2F1E0DE01579698
S113050001900D928A95E1F78BE0EBE2F1E0DE01D8
S1130510929601900D928A95E1F78BE0E6E3F1E083
S1130520DE019D9601900D928A95E1F710934801A2
S113053085E090E0A0E0B0E080930601909307018D
S1130540A0930801B093090187E390E037D090931A
S11305504E0180934D012BE0FE013196DC010190A8
S11305600D922A95E1F72BE0FE013C96DC011B96E7
S113057001900D922A95E1F72BE0FE017796DC01BC
S1130580569601900D922A95E1F72BE0FE01B29662
S1130590DC01919601900D922A95E1F72BE0FE0182
S11305A0BD96DC019C9601900D922A95E1F765E0D9
S11305B070E080E090E03FDF4FDFFFCF0F931F93A9
S11305C0CF93DF938230910510F482E090E0E091C4
S11305D05101F091520120E030E0A0E0B0E030970A
S11305E019F1408151810281138148175907C8F0DC
S11305F08417950769F4109731F012960C931297AB
S113060013961C9327C0009351011093520122C0EA
S11306102115310519F04217530718F49A01BD0149
S1130620EF01DF01F801DBCF21153105F9F0281BBB
S1130630390B2430310580F48A819B816115710561
S113064021F0FB019383828304C090935201809331
S11306505101FE01329644C0FE01E20FF31F819363
S1130660919322503109398328833AC020914F0154
S113067030915001232B41F4209102013091030168
S11306803093500120934F012091000130910101DA
S11306902115310541F42DB73EB740910401509125
S11306A00501241B350BE0914F01F0915001E21735
S11306B0F307A0F42E1B3F0B2817390778F0AC0181
S11306C04E5F5F4F2417350748F04E0F5F1F50935E
S11306D0500140934F018193919302C0E0E0F0E018
S11306E0CF01DF91CF911F910F910895CF93DF93A5
S11306F0009709F481C0FC01329713821282A09101
S11307005101B0915201109781F420813181820FFF
S1130710931F20914F01309150012817390751F54B
S1130720F0935001E0934F0167C0ED0120E030E009
S1130730CE17DF0740F44A815B819E0141155105C4
S1130740F1F0EA01F5CFD383C28340815181840F54
S1130750951FC817D90759F488819981840F951F6B
S11307600296918380838A819B819383828321155E
S1130770310529F4F0935201E09351013DC0E901A0
S1130780FB83EA8349915991C40FD51FEC17FD07E8
S113079061F480819181840F951F0296E901998308
S11307A08883828193819B838A83E0E0F0E01296C0
S11307B08D919C911397009719F0FD01DC01F7CFFF
S11307C08D919C9111979D012E5F3F4F820F931F36
S11307D020914F01309150012817390769F430975F
S11307E029F4109252011092510102C01382128214
S11307F0B0935001A0934F01DF91CF910895F894E5
S1050800FFCF24
S113080200005301200001000000FFE8030000E89B
S11308120300006D00FF0500000005000000340124
S1130822FF32000000320000006400FF32000000CA
S113083232000000FC00FF050000000500000090EB
S10508420000B0
S9030000FC
